{
  "contractName": "Diploma",
  "abi": [
    {
      "inputs": [],
      "stateMutability": "nonpayable",
      "type": "constructor"
    },
    {
      "inputs": [
        {
          "internalType": "bytes32",
          "name": "hash",
          "type": "bytes32"
        }
      ],
      "name": "addDocHash",
      "outputs": [],
      "stateMutability": "nonpayable",
      "type": "function"
    },
    {
      "inputs": [
        {
          "internalType": "bytes32",
          "name": "hash",
          "type": "bytes32"
        }
      ],
      "name": "findDocHash",
      "outputs": [
        {
          "internalType": "uint256",
          "name": "",
          "type": "uint256"
        },
        {
          "internalType": "uint256",
          "name": "",
          "type": "uint256"
        }
      ],
      "stateMutability": "view",
      "type": "function",
      "constant": true
    }
  ],
  "bytecode": "0x608060405234801561001057600080fd5b506101e7806100206000396000f3fe608060405234801561001057600080fd5b50600436106100365760003560e01c8063133a48f31461003b5780634cf00d3f14610057575b600080fd5b61005560048036038101906100509190610142565b610088565b005b610071600480360381019061006c9190610142565b6100cf565b60405161007f929190610188565b60405180910390f35b600060405180604001604052804281526020014381525090508060008084815260200190815260200160002060008201518160000155602082015181600101559050505050565b600080600080848152602001908152602001600020600001546000808581526020019081526020016000206001015491509150915091565b600080fd5b6000819050919050565b61011f8161010c565b811461012a57600080fd5b50565b60008135905061013c81610116565b92915050565b60006020828403121561015857610157610107565b5b60006101668482850161012d565b91505092915050565b6000819050919050565b6101828161016f565b82525050565b600060408201905061019d6000830185610179565b6101aa6020830184610179565b939250505056fea26469706673582212204dcabcf65b9bc2a34d6f90d7ea008dd8f2504d126c935767d2764f15329067ba64736f6c634300080b0033",
  "immutableReferences": {},
  "source": "// SPDX-License-Identifier: MIT\r\npragma solidity ^0.8.0;\r\n\r\ncontract Diploma {\r\n    struct Record {\r\n        uint mineTime;\r\n        uint blockNumber;\r\n    }\r\n\r\n    mapping(bytes32 => Record) private docHashes;\r\n\r\n    constructor() {\r\n    }\r\n\r\n    function addDocHash(bytes32 hash) public {\r\n        Record memory newRecord = Record(block.timestamp, block.number);\r\n        docHashes[hash] = newRecord;\r\n    }\r\n\r\n    function findDocHash(bytes32 hash) public view returns (uint, uint) {\r\n        return (docHashes[hash].mineTime, docHashes[hash].blockNumber);\r\n    }\r\n}",
  "sourcePath": "C:\\Git\\eth-hash-chain\\contracts\\Diploma.sol",
  "compiler": {
    "name": "solc",
    "version": "0.8.11+commit.d7f03943.Emscripten.clang"
  },
  "schemaVersion": "3.4.4",
  "updatedAt": "2022-05-03T14:41:52.427Z",
  "networkType": "ethereum",
  "devdoc": {
    "kind": "dev",
    "methods": {},
    "version": 1
  },
  "userdoc": {
    "kind": "user",
    "methods": {},
    "version": 1
  }
}